:020000040800F2
:100000008806002089010008AD050008C904000821
:10001000A905000843020008FB0E000800000000CC
:10002000000000000000000000000000210800089F
:100030004702000800000000C9060008290900085E
:10004000A3010008A3010008A3010008A301000800
:10005000A3010008A301000849020008A301000849
:10006000A3010008A3010008A3010008A3010008E0
:10007000A3010008A3010008A3010008A3010008D0
:10008000A3010008A3010008A3010008A3010008C0
:10009000A3010008A3010008A3010008A3010008B0
:1000A000A3010008A3010008A3010008A3010008A0
:1000B000A3010008CD090008A3010008A30100085E
:1000C000A3010008A3010008A3010008A301000880
:1000D000A3010008A30100082D0C0008A3010008DB
:1000E000A3010008A3010008A301000800F002F822
:1000F00000F03AF80AA090E8000C82448344AAF188
:100100000107DA4501D100F02FF8AFF2090EBAE885
:100110000F0013F0010F18BFFB1A43F0010318473B
:10012000680E0000880E0000103A24BF78C878C11D
:10013000FAD8520724BF30C830C144BF04680C60ED
:10014000704700000023002400250026103A28BF35
:1001500078C1FBD8520728BF30C148BF0B60704739
:100160001FB51FBD10B510BD00F031F81146FFF7E7
:10017000F7FF00F0C5FE00F04FF803B4FFF7F2FF01
:1001800003BC00F057F800000948804709480047C1
:10019000FEE7FEE7FEE7FEE7FEE7FEE7FEE7FEE737
:1001A000FEE7FEE704480549054A064B7047000094
:1001B0002D090008ED0000088800002088060020B6
:1001C00088020020880200207047704770477546FB
:1001D00000F02CF8AE4605006946534620F00700B3
:1001E000854618B020B5FFF7DDFFBDE820404FF091
:1001F00000064FF000074FF000084FF0000B21F011
:100200000701AC46ACE8C009ACE8C009ACE8C009DD
:10021000ACE8C0098D46704710B50446AFF30080C6
:100220002046BDE81040FFF7A8BF00000048704717
:100230002800002001491820ABBEFEE7260002007E
:10024000704700BFFEE7704710B5012000F018F8B6
:1002500068B10121064800F01CF9012802D100F024
:1002600071F901E000F066F9012000F003F810BD1B
:100270000008014001490860704700001404014073
:10028000014600200022074B1B6803EA0102054BD0
:1002900014331B680B4013B10AB1012000E00020A9
:1002A0007047000000040140002123498279002AA0
:1002B0003AD00A46126803689A430B461A600A1D30
:1002C000126803689A430B1D1A60027911440A6888
:1002D00003681A430A60184A0832126803689A438E
:1002E000154B08331A601A1D126803689A43124BA3
:1002F0000C331A604279102A0ED11A1F1268036853
:100300001A430D4B08331A601A1D126803681A430A
:10031000094B0C331A600DE00749427911440A6811
:1003200003681A430A6005E0027911440A68036809
:100330009A430A60704700000004014030B5002273
:100340008B071C0F0F2303FA04F20B4B8C1053F88E
:1003500024309343084C8D1044F8253023468C10EC
:1003600053F824308C07240F00FA04F42343024C82
:100370008D1044F8253030BD080001402DE9F041D2
:10038000024600250026002000230024002791F8C3
:1003900003C00CF00F0591F803C00CF0100CBCF179
:1003A000000F03D091F802C04CEA050591F800C097
:1003B000BCF1000F31D0146800202BE04FF0010C8D
:1003C0000CFA00F3B1F800C00CEA03069E4220D1FB
:1003D00083004FF00F0C0CFA03F7BC4305FA03FC43
:1003E0004CEA040491F803C0BCF1280F06D14FF089
:1003F000010C0CFA00FCC2F814C00AE091F803C02A
:10040000BCF1480F05D14FF0010C0CFA00FCC2F80A
:1004100010C0401C0828D1D31460B1F800C0BCF152
:10042000FF0F34DD546800202EE000F1080C4FF07F
:10043000010808FA0CF3B1F800C00CEA03069E426A
:1004400021D183004FF00F0C0CFA03F7BC4305FADF
:1004500003FC4CEA040491F803C0BCF1280F05D159
:1004600000F1080C08FA0CF8C2F8148091F803C0E7
:10047000BCF1480F07D100F1080C4FF0010808FA51
:100480000CF8C2F81080401C0828CED35460BDE898
:10049000F0810246002093680B400BB1012000E080
:1004A0000020704702460020D3680B400BB10120AA
:1004B00000E00020704741617047016170470AB158
:1004C000016100E04161704700BFFEE70EB5012108
:1004D000052000F01BF90120ADF8080048208DF838
:1004E0000B0002A90A48FFF749FF00210846FFF761
:1004F00025FF0120009000208DF8040010208DF8C9
:10050000050001208DF806006846FFF7CDFE0EBD00
:100510000008014010B504210148FFF7CCFF10BDD1
:100520000008014010B504210148FFF7C6FF10BDC7
:100530000008014010B508210148FFF7BCFF10BDBD
:100540000008014010B508210148FFF7B6FF10BDB3
:100550000008014008B50121042000F0D7F80C2064
:10056000ADF8000010208DF8030003208DF8020084
:1005700069460448FFF702FFFFF7CCFFFFF7DAFFF9
:1005800008BD00000008014010B504210548FFF730
:1005900089FFC0F10100C4B2224604210148FFF7DF
:1005A0008EFF10BD0008014000BFFEE7704708B590
:1005B0004FF4E06000F07EF806208DF80000002087
:1005C0008DF8010002208DF8020001208DF8030053
:1005D000684600F037F84FF4C06000F06BF8252053
:1005E0008DF8000000208DF8010001208DF8020038
:1005F0008DF80300684600F025F84FF4C06000F065
:1006000059F826208DF8000000208DF801008DF8A3
:10061000020001208DF80300684600F013F84FF443
:10062000E06000F047F81D208DF8000000208DF8F4
:1006300001008DF8020001208DF80300684600F0EB
:1006400001F808BD70B5002100230F22C47804B35F
:10065000154C246804F4E064C4F5E064210AC1F197
:100660000403CA40447804FA03F184781440214317
:1006700009010E4C0678A155047804F01F050124E9
:10068000AC4005786D11AD0005F1E025C5F80041DD
:1006900009E0047804F01F050124AC40044D0678FD
:1006A000761145F8264070BD0CED00E000E400E056
:1006B00080E100E002490143024A116070470000F6
:1006C0000000FA050CED00E07047000029B1064A71
:1006D000D2690243044BDA6104E0034AD2698243DF
:1006E000014BDA61704700000010024029B1064A50
:1006F00012690243044B1A6104E0034A12698243FF
:10070000014B1A61704700000010024029B1064AEF
:1007100092690243044B9A6104E0034A926982435E
:10072000014B9A61704700000010024029B1064A4F
:10073000D2680243044BDA6004E0034AD268824381
:10074000014BDA60704700000010024030B5002114
:100750000022002400232D4D6D6805F00C0121B10D
:10076000042905D0082923D105E0294D056022E0A0
:10077000274D05601FE0254D6D6805F47012234D6F
:100780006D6805F48034022505EB92421CB9214DB9
:10079000554305600BE01D4D6D6805F400351DB136
:1007A0001C4D5543056002E0194D5543056002E0BC
:1007B000174D056000BF00BF144D6D6805F0F001D6
:1007C0000909154D6B5C0568DD4045600F4D6D688E
:1007D00005F4E061090A104D6B5C4568DD408560F9
:1007E0000A4D6D6805F46051C90A0B4D6B5C456894
:1007F000DD40C560054D6D6805F44041890B074D2E
:100800006B5CC568B5FBF3F5056130BD00100240B7
:1008100000127A0000093D00120000202200002092
:10082000704770B504460D462946204600F061FB2E
:1008300000BF4021204600F08FFA0128F9D170BD99
:1008400010B500F001F810BD0CB50020019000902B
:100850003348006840F480303149086000BF3048B8
:10086000006800F4003000900198401C019000984E
:1008700018B90198B0F5A06FF1D12948006800F4CB
:10088000003010B10120009001E00020009000989D
:10089000012843D12348006840F010002149086036
:1008A0000846006820F0030008600846006840F031
:1008B000020008601A4840681949486008464068C4
:1008C00048600846406840F48060486008464068D8
:1008D00020F47C1048600846406840F4E810486006
:1008E0000846006840F08070086000BF0C4800684F
:1008F00000F000700028F9D00948406820F003009B
:10090000074948600846406840F00200486000BF60
:100910000348406800F00C000828F9D10CBD000025
:1009200000100240002002407047000010B513483C
:10093000006840F00100114908600846406810490D
:1009400008400E494860084600680E4908400B49B7
:1009500008600846006820F4802008600846406867
:1009600020F4FE0048604FF41F008860FFF768FF26
:100970004FF000600449086010BD00000010024004
:100980000000FFF8FFFFF6FE08ED00E00EB50121C4
:100990000220FFF79BFE41F61F40ADF8000000204B
:1009A000ADF8020042F20F70ADF804006946064847
:1009B00000F05AF801224121034800F04CF80121CF
:1009C000014800F02BF80EBD0004004010B50121D5
:1009D0000E4800F02FF8C0B1FFF7D6FD04210C48F7
:1009E000FFF760FD0B49487108210948FFF75AFDE0
:1009F00008498871002406E00648015D0648FFF7B3
:100A000010FF601CC4B2082CF6DB10BD00040040CF
:100A100000080140080000200044004021B1028885
:100A200042F00102028004E002884FF6FE731A4091
:100A30000280704730B50246002000230024158A4A
:100A400005EA0103958905EA010413B10CB10120FF
:100A500000E0002030BD1AB183890B43838102E09E
:100A600083898B4383817047002202881D4B984203
:100A70000ED01D4B98420BD0B0F1804F08D01B4BCD
:100A8000984205D01A4B984202D01A4B984204D192
:100A90004FF68F731A404B881A43174B984207D072
:100AA000164B984204D04FF6FF431A40CB881A43A6
:100AB00002808B8883850B8803850A4B98420BD074
:100AC000094B984208D00E4B984205D00D4B9842E6
:100AD00002D00D4B984201D10B7A03860123838209
:100AE00070470000002C0140003401400004004029
:100AF00000080040000C00400010004000140040BE
:100B000000400140004401400048014000B585B06C
:100B1000012144F20500FFF7F9FD1C4800F0CEF872
:100B20004FF40070ADF8100003208DF8120018206B
:100B30008DF8130004A91648FFF720FC4FF48060DD
:100B4000ADF8100004208DF8130004A91048FFF739
:100B500015FC4FF4165000900020ADF80400ADF8DD
:100B60000600ADF80800ADF80C000C20ADF80A0046
:100B70006946064800F04CF90121044800F091F85C
:100B80004021024800F0E8F805B000BD00380140FF
:100B90000008014000B585B0224800F08FF801211F
:100BA0004804FFF793FD01210520FFF7AFFD042066
:100BB000ADF8100003208DF8120018208DF81300F6
:100BC00004A91948FFF7DAFB0820ADF8100004204B
:100BD0008DF8130004A91448FFF7D0FB4FF416500A
:100BE00000900020ADF80400ADF80600ADF8080054
:100BF000ADF80C000C20ADF80A006946094800F079
:100C000007F9012240F22551064800F0DCF80121E5
:100C1000044800F046F84021024800F09DF805B075
:100C200000BD0000004400400008014010B540F243
:100C30002551104800F09DF8D0B10E4800F054F94D
:100C40000D490E4A127888540C480078401C0B4914
:100C5000087008460078082805DB0120084908705C
:100C600000200649087040F22551024800F00AF8B9
:100C700010BD0000004400400000002011000020D2
:100C80001000002010B50022002340F66A14A14293
:100C900000D100BF0A1201249440A3B2DC430480B7
:100CA00010BD21B1828942F40052828104E0828920
:100CB0004DF6FF731A4082817047000010B504465C
:100CC0002048844209D101218803FFF72FFD00212C
:100CD0004FF48040FFF72AFD32E01B48844209D1DF
:100CE00001214804FFF702FD00214FF40030FFF717
:100CF000FDFC25E01548844209D101218804FFF755
:100D0000F5FC00214FF48020FFF7F0FC18E01048BC
:100D1000844209D10121C804FFF7E8FC00214FF407
:100D20000020FFF7E3FC0BE00A48844208D10121D0
:100D30000805FFF7DBFC00214FF48010FFF7D6FC1D
:100D400010BD000000380140004400400048004051
:100D5000004C00400050004002460020B1F5007FEA
:100D600000D100BF13880B400BB1012000E0002030
:100D7000704770B50246002400230025002040F68D
:100D80006A16B14200D100BFC1F3421501F01F0342
:100D9000012606FA03F3012D02D19689334006E0BD
:100DA000022D02D1168A334001E0968A33400C129C
:100DB000012606FA04F41688344013B10CB1012060
:100DC00000E0002070BDF0B5034600240026002599
:100DD000002040F66A17B94200D100BF1846C1F39F
:100DE000421401F01F06012707FA06F5012C01D174
:100DF0000C3004E0022C01D1103000E014301AB1A4
:100E000007682F43076002E00768AF430760F0BD43
:100E10002DE9F04786B005460E460024A24600BFE5
:100E2000A1460027B08900B100BF2F462C8A4CF69E
:100E3000FF700440F08804432C82AC894EF6F31016
:100E40000440B08831890843718908430443AC8168
:100E5000AC8A4FF6FF400440B0890443AC8201A83D
:100E6000FFF774FC1F48874202D1DDF810A001E0B3
:100E7000DDF80CA0A88900F4004040B10AEBCA00DC
:100E800000EB0A1031684900B0FBF1F807E00AEB0B
:100E9000CA0000EB0A1031688900B0FBF1F8642049
:100EA000B8FBF0F004012009642101FB1089A88936
:100EB00000F4004040B1322000EBC900B0FBF1F07B
:100EC00000F00700044308E0322000EB0910642121
:100ED000B0FBF1F000F00F0004432C8106B0BDE838
:100EE000F08700000038014001468888C0F3080000
:100EF0007047C1F308028280704700BFFEE7000020
:100F000000201D490870FFF752FBFFF7FFFDFFF7B8
:100F100041FEFFF71FFBFFF7D9FAFFF737FD2AE085
:100F20001548007838B315480078AA2814D113481A
:100F30004078BB2810D111488078CC280CD10F48BC
:100F4000C078DD2808D10D48407910B9FFF7E2FAE2
:100F50000CE0FFF7E7FA09E0002405E0002108486B
:100F6000FFF75FFC601CC4B2082CF7DB00200249CD
:100F7000087004490870D3E710000020000000202A
:100F80000044004011000020A80F000800000020CD
:100F90002800000028010008D00F000828000020C9
:100FA000600600004401000800000000000000008E
:100FB000AABBCCDD0100000000000000000001021F
:100FC00003040102030406070809020406080000DE
:04000005080000ED02
:00000001FF
