:020000040800F2
:1000000088060020CD010008C90500080305000886
:10001000C505000887020008730D000800000000F5
:1000200000000000000000000000000019080008A7
:100030008B02000800000000C1060008210900082A
:10004000E7010008E7010008E7010008E7010008F0
:10005000E7010008E70100088D020008E701000839
:10006000E7010008E7010008E7010008E7010008D0
:10007000E7010008E7010008E7010008E7010008C0
:10008000E7010008E7010008E7010008E7010008B0
:10009000E7010008E7010008E7010008E7010008A0
:1000A000E7010008E7010008E7010008E701000890
:1000B000E7010008E7010008E7010008E701000880
:1000C000E7010008E7010008E7010008E701000870
:1000D000E7010008E7010008A50A0008E701000899
:1000E000E7010008E7010008E7010008E701000850
:1000F000E7010008E7010008E7010008E701000840
:10010000E7010008E7010008E7010008E70100082F
:10011000E7010008E7010008E7010008E70100081F
:10012000E7010008E7010008E7010008E70100080F
:1001300000F002F800F03AF80AA090E8000C8244BF
:100140008344AAF10107DA4501D100F02FF8AFF29C
:10015000090EBAE80F0013F0010F18BFFB1A43F0A5
:1001600001031847000D0000200D0000103A24BFC5
:1001700078C878C1FAD8520724BF30C830C144BF0C
:1001800004680C607047000000230024002500264E
:10019000103A28BF78C1FBD8520728BF30C148BFEA
:1001A0000B6070471FB51FBD10B510BD00F031F8D2
:1001B0001146FFF7F7FF00F0E9FD00F04FF803B438
:1001C000FFF7F2FF03BC00F057F800000948804732
:1001D00009480047FEE7FEE7FEE7FEE7FEE7FEE729
:1001E000FEE7FEE7FEE7FEE704480549054A064B41
:1001F0007047000025090008310100088800002030
:10020000880600208802002088020020704770477E
:100210007047754600F02CF8AE4605006946534617
:1002200020F00700854618B020B5FFF7DDFFBDE8D8
:1002300020404FF000064FF000074FF000084FF04D
:10024000000B21F00701AC46ACE8C009ACE8C009DE
:10025000ACE8C009ACE8C0098D46704710B504464B
:10026000AFF300802046BDE81040FFF7A8BF0000B4
:10027000004870472800002001491820ABBEFEE767
:1002800026000200704700BFFEE7704710B501204E
:1002900000F018F868B10121064800F01CF90128A7
:1002A00002D100F06DF901E000F062F9012000F0E8
:1002B00003F810BD000801400149086070470000C4
:1002C00014040140014600200022074B1B6803EA8A
:1002D0000102054B14331B680B4013B10AB1012016
:1002E00000E0002070470000000401400021234985
:1002F0008279002A3AD00A46126803689A430B466C
:100300001A600A1D126803689A430B1D1A6002796D
:1003100011440A6803681A430A60184A08321268CE
:1003200003689A43154B08331A601A1D1268036854
:100330009A43124B0C331A604279102A0ED11A1FBD
:10034000126803681A430D4B08331A601A1D1268AD
:1003500003681A43094B0C331A600DE007494279D0
:1003600011440A6803681A430A6005E002791144DF
:100370000A6803689A430A6070470000000401405D
:1003800030B500228B071C0F0F2303FA04F20B4B2E
:100390008C1053F824309343084C8D1044F82530CA
:1003A00023468C1053F824308C07240F00FA04F4F1
:1003B0002343024C8D1044F8253030BD0800014025
:1003C0002DE9F041024600250026002000230024EC
:1003D000002791F803C00CF00F0591F803C00CF052
:1003E000100CBCF1000F03D091F802C04CEA0505D7
:1003F00091F800C0BCF1000F31D0146800202BE050
:100400004FF0010C0CFA00F3B1F800C00CEA03063F
:100410009E4220D183004FF00F0C0CFA03F7BC432F
:1004200005FA03FC4CEA040491F803C0BCF1280F60
:1004300006D14FF0010C0CFA00FCC2F814C00AE01F
:1004400091F803C0BCF1480F05D14FF0010C0CFA34
:1004500000FCC2F810C0401C0828D1D31460B1F8C9
:1004600000C0BCF1FF0F34DD546800202EE000F125
:10047000080C4FF0010808FA0CF3B1F800C00CEAC0
:1004800003069E4221D183004FF00F0C0CFA03F7B4
:10049000BC4305FA03FC4CEA040491F803C0BCF128
:1004A000280F05D100F1080C08FA0CF8C2F81480E6
:1004B00091F803C0BCF1480F07D100F1080C4FF0D0
:1004C000010808FA0CF8C2F81080401C0828CED3A6
:1004D0005460BDE8F0810246002093680B400BB1E8
:1004E000012000E00020704702460020D3680B4046
:1004F0000BB1012000E000207047416170470161AD
:10050000704700BFFEE700000EB50121052000F096
:10051000F9F80120ADF8080048208DF80B0002A979
:100520000A48FFF74DFF00210846FFF729FF012089
:10053000009000208DF8040010208DF805000120A7
:100540008DF806006846FFF7D1FE0EBD0008014099
:1005500010B504210148FFF7D0FF10BD000801408D
:1005600010B504210148FFF7CAFF10BD0008014083
:1005700010B508210148FFF7C0FF10BD0008014079
:1005800010B508210148FFF7BAFF10BD000801406F
:1005900008B50121042000F0B5F80C20ADF80000EA
:1005A00010208DF8030003208DF8020069460448EE
:1005B000FFF706FFFFF7CCFFFFF7DAFF08BD0000EB
:1005C0000008014000BFFEE7704708B54FF4E06047
:1005D00000F06CF806208DF8000000208DF8010076
:1005E00002208DF8020001208DF80300684600F01B
:1005F00025F84FF4C06000F059F825208DF8000070
:1006000000208DF8010001208DF802008DF8030014
:10061000684600F013F84FF4C06000F047F8262059
:100620008DF8000000208DF801008DF802000120F7
:100630008DF80300684600F001F808BD70B5002190
:1006400000230F22C47804B3154C246804F4E0643A
:10065000C4F5E064210AC1F10403CA40447804FAF5
:1006600003F184781440214309010E4C0678A1550A
:10067000047804F01F050124AC4005786D11AD002D
:1006800005F1E025C5F8004109E0047804F01F05F4
:100690000124AC40044D0678761145F8264070BD23
:1006A0000CED00E000E400E080E100E002490143DD
:1006B000024A1160704700000000FA050CED00E0EE
:1006C0007047000029B1064AD2690243044BDA613F
:1006D00004E0034AD2698243014BDA6170470000AB
:1006E0000010024029B1064A12690243044B1A6104
:1006F00004E0034A12698243014B1A61704700000B
:100700000010024029B1064A92690243044B9A61E3
:1007100004E0034A92698243014B9A6170470000EA
:100720000010024029B1064AD2680243044BDA6045
:1007300004E0034AD2688243014BDA60704700004C
:100740000010024030B500210022002400232D4D6E
:100750006D6805F00C0121B1042905D0082923D1C9
:1007600005E0294D056022E0274D05601FE0254D7D
:100770006D6805F47012234D6D6805F48034022510
:1007800005EB92421CB9214D554305600BE01D4D10
:100790006D6805F400351DB11C4D5543056002E040
:1007A000194D5543056002E0174D056000BF00BFBD
:1007B000144D6D6805F0F0010909154D6B5C056875
:1007C000DD4045600F4D6D6805F4E061090A104D8C
:1007D0006B5C4568DD4085600A4D6D6805F46051CD
:1007E000C90A0B4D6B5C4568DD40C560054D6D6801
:1007F00005F44041890B074D6B5CC568B5FBF3F50B
:10080000056130BD0010024000127A0000093D0071
:100810000000002010000020704770B504460D460F
:100820002946204600F0A1FA00BF4021204600F0F2
:10083000CFF90128F9D170BD10B500F001F810BD55
:100840000CB50020019000903348006840F48030DF
:100850003149086000BF3048006800F40030009063
:100860000198401C0190009818B90198B0F5A06F4C
:10087000F1D12948006800F4003010B10120009047
:1008800001E0002000900098012843D1234800682F
:1008900040F01000214908600846006820F003007D
:1008A00008600846006840F0020008601A48406886
:1008B000194948600846406848600846406840F466
:1008C000806048600846406820F47C104860084614
:1008D000406840F4E81048600846006840F08070C6
:1008E000086000BF0C48006800F000700028F9D0D4
:1008F0000948406820F003000749486008464068FE
:1009000040F00200486000BF0348406800F00C005F
:100910000828F9D10CBD0000001002400020024060
:100920007047000010B51348006840F001001149FD
:10093000086008464068104908400E49486008466B
:1009400000680E4908400B4908600846006820F41A
:10095000802008600846406820F4FE0048604FF49C
:100960001F008860FFF768FF4FF0006004490860CF
:1009700010BD0000001002400000FFF8FFFFF6FE6F
:1009800008ED00E000B585B0012144F20500FFF755
:10099000B9FE1C4800F0CEF84FF40070ADF810001E
:1009A00003208DF8120018208DF8130004A91648B2
:1009B000FFF706FD4FF48060ADF8100004208DF8BD
:1009C000130004A91048FFF7FBFC4FF416500090E9
:1009D0000020ADF80400ADF80600ADF80800ADF851
:1009E0000C000C20ADF80A006946064800F04CF9EE
:1009F0000121044800F091F84021024800F0E8F895
:100A000005B000BD003801400008014000B585B0C8
:100A1000224800F08FF801214804FFF753FE01211E
:100A20000520FFF76FFE0420ADF8100003208DF8BD
:100A3000120018208DF8130004A91948FFF7C0FC14
:100A40000820ADF8100004208DF8130004A9144804
:100A5000FFF7B6FC4FF4165000900020ADF80400EC
:100A6000ADF80600ADF80800ADF80C000C20ADF8AC
:100A70000A006946094800F007F9012240F22551B1
:100A8000064800F0DCF80121044800F046F8402157
:100A9000024800F09DF805B000BD00000044004091
:100AA0000008014010B540F22551104800F09DF8B3
:100AB000D0B10E4800F054F90D490E4A127888540E
:100AC0000C480078401C0B4908700846007808283C
:100AD00005DB01200849087000200649087040F233
:100AE0002551024800F00AF810BD00000044004003
:100AF00014000020250000202400002010B5002252
:100B0000002340F66A14A14200D100BF0A1201245A
:100B10009440A3B2DC43048010BD21B1828942F429
:100B20000052828104E082894DF6FF731A4082816F
:100B30007047000010B504462048844209D10121C5
:100B40008803FFF7EFFD00214FF48040FFF7EAFD37
:100B500032E01B48844209D101214804FFF7C2FD5D
:100B600000214FF40030FFF7BDFD25E01548844219
:100B700009D101218804FFF7B5FD00214FF4802041
:100B8000FFF7B0FD18E01048844209D10121C804E4
:100B9000FFF7A8FD00214FF40020FFF7A3FD0BE0B5
:100BA0000A48844208D101210805FFF79BFD002176
:100BB0004FF48010FFF796FD10BD00000038014093
:100BC0000044004000480040004C004000500040FD
:100BD00002460020B1F5007F00D100BF13880B4012
:100BE0000BB1012000E00020704770B502460024E0
:100BF00000230025002040F66A16B14200D100BF54
:100C0000C1F3421501F01F03012606FA03F3012D7B
:100C100002D19689334006E0022D02D1168A334074
:100C200001E0968A33400C12012606FA04F4168875
:100C3000344013B10CB1012000E0002070BDF0B5CC
:100C40000346002400260025002040F66A17B9421A
:100C500000D100BF1846C1F3421401F01F0601275E
:100C600007FA06F5012C01D10C3004E0022C01D169
:100C7000103000E014301AB107682F43076002E01B
:100C80000768AF430760F0BD2DE9F04786B0054621
:100C90000E460024A24600BFA1460027B08900B13D
:100CA00000BF2F462C8A4CF6FF700440F0880443A6
:100CB0002C82AC894EF6F3100440B0883189084389
:100CC000718908430443AC81AC8A4FF6FF4004406D
:100CD000B0890443AC8201A8FFF734FD1F48874266
:100CE00002D1DDF810A001E0DDF80CA0A88900F425
:100CF000004040B10AEBCA0000EB0A10316849001D
:100D0000B0FBF1F807E00AEBCA0000EB0A1031680B
:100D10008900B0FBF1F86420B8FBF0F00401200971
:100D2000642101FB1089A88900F4004040B1322001
:100D300000EBC900B0FBF1F000F00700044308E04D
:100D4000322000EB09106421B0FBF1F000F00F003D
:100D500004432C8106B0BDE8F08700000038014054
:100D600001468888C0F308007047C1F308028280FA
:100D7000704700BFFEE705E041F64C5100BF4A1E38
:100D8000111EFCD1421E101EF6D1704700202F49C3
:100D90000870FFF71AFCFFF7F5FDFFF737FEFFF7C6
:100DA000F7FBFFF7B1FB50E02848007838B328483C
:100DB0000078AA2814D126484078BB2810D12448AE
:100DC0008078CC280CD12248C078DD2808D1204872
:100DD000407910B9FFF7BCFB0CE0FFF7C1FB09E05D
:100DE000002405E000211B48FFF717FD601CC4B27A
:100DF000082CF7DB002015490870174908700421FA
:100E00001648FFF771FB1649487108211348FFF790
:100E10006BFB13498871002406E01148015D0D4801
:100E2000FFF7FBFC601CC4B2082CF6DB002406E0D4
:100E30000748015D0748FFF7F0FC601CC4B2082CAE
:100E4000F6DB4FF47A70FFF796FFADE72400002041
:100E5000140000200044004025000020000801404C
:100E60001C000020840E0008000000202800000064
:100E70006C010008AC0E000828000020600600008D
:100E800088010008000000000102030401020304BD
:100E90000607080902040608000000000000000020
:0C0EA000AABBCCDD010000000000000037
:0400000508000131BD
:00000001FF
