:020000040800F2
:1000000088080020E5010008DF110008D71100086A
:10001000DB110008170E0008CD17000800000000D3
:10002000000000000000000000000000E5130008D0
:10003000BF100008000000008D120008D114000855
:10004000FF010008FF010008FF010008FF01000890
:10005000FF010008FF010008FF010008FF01000880
:10006000FF010008FF010008FF010008FF01000870
:10007000FF010008FF0100081D0E0008FF01000835
:10008000FF010008FF010008FF010008FF01000850
:10009000FF010008FF010008FF010008FF01000840
:1000A000FF010008FF010008FF010008FF01000830
:1000B000FF010008FF010008FF010008FF01000820
:1000C000FF010008FF010008FF010008FF01000810
:1000D000FF010008FF010008FF010008FF01000800
:1000E000FF010008FF010008FF010008FF010008F0
:1000F000FF010008FF010008FF010008FF010008E0
:10010000FF010008FF010008FF010008FF010008CF
:10011000FF010008FF010008FF010008FF010008BF
:10012000FF010008FF010008FF010008FF010008AF
:1001300000F002F800F047F80AA090E8000C8244B2
:100140008344AAF10107DA4501D100F03CF8AFF28F
:10015000090EBAE80F0013F0010F18BFFB1A43F0A5
:100160000103184784180000A4180000103A24BFA7
:1001700078C878C1FAD8520724BF30C830C144BF0C
:1001800004680C607047000000230024002500264E
:10019000103A28BF78C1FBD8520728BF30C148BFEA
:1001A0000B607047782900F07180002070471FB500
:1001B0009DE8030000F0F0FB00F0BAF91FBD10B598
:1001C00000F01FFA10BD00F082FA1146FFF7EFFFB2
:1001D00001F022FB00F086FB03B4FFF7F0FF03BC45
:1001E00000F06CFD0948804709480047FEE7FEE73C
:1001F000FEE7FEE7FEE7FEE7FEE7FEE7FEE7FEE7D7
:1002000004480549054A064B70470000D51400080C
:10021000310100088802002088080020880400209E
:10022000880400200FB4044910B503AA029800F016
:1002300051F910BC5DF814FB7C01002070B5044638
:1002400085690068C10601D5302600E02026C00778
:1002500007D070BDD4E9012130469047206A401C88
:1002600020626D1EF6D570BD70B5044685690078B4
:10027000C00707D170BDD4E9012120209047206A32
:10028000401C20626D1EF6D570BD000070B504469E
:100290000D4621461068AFF300802188090502D57C
:1002A0000F4A7A4402E00E4A7A440E32002104F1E9
:1002B000240305E000F00F060009965D5E54491C1A
:1002C0000028F7D120780023000704D5702D02D034
:1002D00009B1022311322046BDE8704000F0A1B8F8
:1002E000B61600002DE9F05F894604464FF0000A7B
:1002F000DFF824B1FB44C0F820A02046E16888471D
:1003000000287DD0252806D0D4E901219047206A15
:10031000401C2062F1E700255F462046E1688847DF
:100320002028064607DB312E05D2B81910F8200C1C
:1003300008B10543F1E7A80701D525F00405C4F885
:100340001CA00027C4F818A02A2E09D0304601F0BE
:100350003FFA38B304EB8708303EC8F8186019E05C
:1003600059F8041B204604EB87029161E168884735
:10037000012F064618D1E069002820DA25F0200573
:100380001DE0D8F8180000EB800006EB4000303884
:10039000C8F818002046E1688847064601F018FAB8
:1003A0000028EED1012F0AD02E2E08D12046E16878
:1003B00088477F1C0646022F45F02005C4DBA06954
:1003C000002803DA404245F00105A061E80701D0AA
:1003D00025F01005A6B1A6F14100192802D8203653
:1003E00045F400654A463146204625604D46FFF7F4
:1003F000D9FE60B1012807D0ED1D25F0070000E00F
:1004000007E000F1080978E705F1040975E73046CF
:100410007AE7206ABDE8F09F8C16000070477047AD
:1004200070472DE9F0470D4699469246044600F183
:1004300024080168880604D5E06921F010012160D4
:1004400000E00120A84201DD471B00E00027A16970
:100450007A1902EB0900081AA0612078C00602D4BC
:100460002046FFF7EBFE002608E0D4E901211AF848
:1004700006009047206A401C761C20624E45F4DB43
:100480002078C0060AD52046FFF7D8FE06E0D4E95A
:10049000012130209047206A401C2062381EA7F1BD
:1004A0000107F4DC07E0D4E9012118F805009047C2
:1004B000206A401C2062281EA5F10105F3DC2046BD
:1004C000FFF7D2FE2078000602D50220BDE8F087B3
:1004D0000120FBE7074B70B50D467B4400F011F897
:1004E0000446284600F020F810B14FF0FF3070BDF0
:1004F000204670BD1713000001694A1C026108788C
:10050000704700B58FB0CDE9013100210591054953
:100510007944CDE9031011466846FFF7E3FE0FB0BA
:1005200000BD0000E5FFFFFF007B00F0800070478A
:1005300010B54248542100F0E5F94148542100F03B
:10054000E1F94048542100F0DDF93F493B483C4A7D
:100550003F4B08603D490A603A491960531C0365E6
:10056000481C1065012008653B48344A39A178448D
:1005700000F01CF920B9384878440A3800F0BBF97B
:1005800037482F4A35A1784400F010F920B9344893
:1005900078440A3800F0AFF932482A4A2FA178444B
:1005A00000F004F920B92F4878440A3800F0A3F984
:1005B00040232248DC000021224600F0D4F820B17C
:1005C00025487844543800F096F91D4822464023C7
:1005D000002100F0C8F820B121487844543800F0D8
:1005E0008AF9184822461023002100F0BCF80028A0
:1005F00006D01C487844BDE81040563800F07BB95E
:1006000010BD104870B5006D20F001040B4800F0DB
:1006100043F90B4800F040F90A4800F03DF909E0C1
:10062000206D20F00105204600F036F9204600F04C
:1006300073F82C46002CF3D170BD00002801002077
:100640007C010020D00100209C000020A0000020A0
:10065000A4000020720000002314000077000000B6
:100660000F140000FB1300000EB5CDE9000100F0EF
:1006700005FB029069460120ABBE0EBD08B5694678
:1006800000900220ABBE08BD1FB58DE8070069468B
:100690000520ABBE04B010BD1FB58DE80F00694644
:1006A0000620ABBEF6E708B5694600900920ABBE50
:1006B00008BD1CB5CDE9000169460A20ABBE1CBDD2
:1006C000704708B5694600900C20ABBE08BD754662
:1006D00000F040F9AE4605006946534620F0070099
:1006E000854618B020B5FFF78BFDBDE820404FF0E0
:1006F00000064FF000074FF000084FF0000B21F00C
:100700000701AC46ACE8C009ACE8C009ACE8C009D8
:10071000ACE8C0098D46704770B50446051F00F06F
:100720001FF90068002C14BF446870BD002C18BF6E
:10073000AC423CBF20466468F8D301680A18AA425C
:1007400018BF456003D12A68054611440160286836
:100750004119A1421CBF6C6070BD6168696021686D
:100760000844286070BD70B5C468A50713D0650241
:1007700011D4B2F5807F09D0B2F5007F06D0B2F572
:10078000806F08D1012300F1240106E05D1E6FF0A7
:100790007F46B54201D3012070BD0161C361416054
:1007A00024F470611143C160002070BD2DE9F04157
:1007B0000C4607461646104600F06EF82078611C7D
:1007C00061280AD0722802D077283CD102E00125A6
:1007D000002405E00225042402E0082448F2020572
:1007E00011F8010B2B2806D0622809D011F8010C52
:1007F00074280AD00BE045F0030544F00204EFE74B
:1008000045F0040544F00104EAE744F010043846DA
:100810002146FFF729FF411C15D00021316171608D
:100820004FF40071F560F1617061200704D5304626
:100830000222002100F00EF9306D40F00100306519
:100840003046BDE8F0810020FBE72DE9F0410D4680
:100850000646104C206DC10704D0410804D020F09A
:100860000104F7E722460EE0542000F0C4F8070028
:100870000ED0206D47F00101084354212065384611
:1008800000F040F83A4629463046BDE8F0418DE791
:100890000020D6E7280100202DE9F04704464FF05C
:1008A00000094FF0FF37C568D4E90486A80707D0D0
:1008B000204600F07FF93046FFF7E0FE002802DA1C
:1008C0003846BDE8F087280502D54046FFF724FFEB
:1008D0004C21204600F016F8206D20F00100206524
:1008E0004846EEE710B50446AFF300802046BDE869
:1008F0001040FFF771BC10B500F0A6F9BDE810403C
:1009000000F09CB94FF0000200B51346944696469D
:10091000203922BFA0E80C50A0E80C50B1F1200112
:10092000BFF4F7AF090728BFA0E80C5048BF0CC0C0
:100930005DF804EB890028BF40F8042B08BF70471E
:1009400048BF20F8022B11F0804F18BF00F8012B90
:1009500070470000004870472402002070470000E4
:10096000004870472C02002070477047704770475E
:1009700038B504460A4600206946AFF300800028D7
:1009800008BF38BD02460099204600F0A4F90120B6
:1009900038BD012000F0F3B9F8B5AFF3008005468B
:1009A00000200C46102000BF0646A819A0420DD911
:1009B000324669460020AFF30080070008BF00F010
:1009C000DEF90098A04218BF0546C419FFF7C8FF1A
:1009D00005600746F01D20F007004619284600F084
:1009E00073F9B44208BFF8BDA21B31463868BDE8B0
:1009F000F84000F070B970B50646FFF7B1FF056822
:100A000006F10B0020F00704B4429CBF002070BD2B
:100A10002B466A68BAB11068A04210D304F10801ED
:100A200088423CBF5068586007D351681019416034
:100A30001168091B016058601460101D70BD1346D9
:100A40005268002AE7D121462846FFF791FF002887
:100A5000DED170BD2DE9F041044616460D464769CA
:100A6000007B80072ED03846FFF71DFE50BB3EB3FB
:100A7000012E02D0022E25D104E0204600F045F9D7
:100A800005441DE03846FFF71CFEE168002841F0F0
:100A90001001E16005DA204600F058F80120BDE8B9
:100AA000F081C9030BD56268E16A914200D8114612
:100AB000A26911442269891A814200DD0846054471
:100AC000002D01DA0220EAE7E16A6068E26881420B
:100AD00006D29103E06203D522F4003141F0100206
:100AE000A6690027AE4213DCE16A814201D90B46B8
:100AF00000E0034603EB060C2369ACEB030CAC45AA
:100B000006DD814201D98C4600E084469C4505D132
:100B1000A760276042F02000A5620DE0AD1BE669EA
:100B2000AE1B8142A66000D90846C01A281A206070
:100B30005819606022F0200003490840E06000205E
:100B400084F84870ABE70000BFCFD7FFC16821F43D
:100B5000001141F08001C160002181600160704797
:100B60002DE9F047814614460E464FF0FF383248D3
:100B7000D5685769054209D03846A169FFF799FD44
:100B8000002811DB2C48C0430540E5602B46324667
:100B900049463846FFF778FDA16920F00042B21AB5
:100BA00011440028A16103D02046FFF7CFFF404643
:100BB000BDE8F08770B504460569C06A616888427F
:100BC00000D80846E16821F42011E160C90312D57C
:100BD000A84208D02246411B2846FFF7C1FF10B1AA
:100BE0004FF0FF3070BD0020E562C4E90150E068BD
:100BF00020F48030E060002070BD10B50446C0686D
:100C000020F02000E060A16AA06988420DD0204653
:100C1000FFF7D0FFE06820F4405040F01000E060A3
:100C2000A06AA0612069E062606044F24001E0686F
:100C30008843E06010BD000010000200002801D0D1
:100C400000F03CB87047000010B5014602A000F06B
:100C50007DF8012010BD00005349475254524544CD
:100C60003A2052656469726563743A2063616E2745
:100C700074206F70656E3A200000000010B5431CB0
:100C800002E010F8011B71B18107FAD14FF0013277
:100C900002C88C1A8C4314EAC211F9D0C01A0A0691
:100CA00003D0C01E10BDC01A10BD0A0401D0801EA2
:100CB00010BD0902FCD0401E10BD000001491820E3
:100CC000ABBEFEE72600020000210160C0E9011072
:100CD000704710207047034640688C46002818BFB4
:100CE00088423CBF03464068F8D3186818448842DD
:100CF00007D00CF1030020F00700001D411A521A22
:100D00000146081D0A60FFF707BD10B50146C2681D
:100D1000900703D0900607D5886A0AE000F03EF8F5
:100D200001210160881E10BD8B69486818440B6959
:100D3000C01A91F848301BB191F84910401A10BD03
:100D40001103FCD50028FADD401E10BD70B5054624
:100D50000C460A2000E06D1C00F018F835B1287828
:100D60000028F8D102E0641C00F010F814B12078DB
:100D70000028F8D1BDE870400A2000F007B810B58F
:100D800000F010F8BDE81040FFF758BF08B56946FD
:100D90008DF800000320ABBE08BD0000004870477E
:100DA0002402002010B5012805D0002103A0FFF780
:100DB000CDFF012010BD09A1F8E7000053494752BB
:100DC000544D454D3A204F7574206F66206865611B
:100DD00070206D656D6F7279000000003A204865E3
:100DE0006170206D656D6F727920636F72727570BE
:100DF0007465640010B5034607E018680C68A042EB
:100E000001D0002010BD091D1B1D501E80B2021E06
:100E1000F3D10120F6E700BFFEE7000010B54FF464
:100E2000005000F00FF940B1044800F007F9044900
:100E300008604FF4805000F005F810BD44000240F7
:100E40001800002000F0805111B10349086001E052
:100E5000024948607047000004040240000002405C
:100E600021B1026842F00102026004E002684FF61C
:100E7000FE731A400260704700B58BB0184800F04E
:100E800037F80121084600F003FA1648009016488A
:100E900001900020029022200390402004908020A6
:100EA00005908000069080000790002008904FF485
:100EB0000050099040000A906946094800F0E1F8A6
:100EC00001220221064800F0D3F8054800F0B6F8E8
:100ED0000649086001210248FFF7C2FF0BB000BDC0
:100EE000440002401C000020A80000201400002044
:100EF00001684FF6FE7211400160002101604160FF
:100F00008160C1604B49884208D14A490839496823
:100F100041F00F01474A083A51608AE045491431CF
:100F2000884208D143490839496841F0F001414AF3
:100F3000083A51607DE03F492831884208D13D4957
:100F40000839496841F470613A4A083A516070E0E2
:100F500038493C31884208D136490839496841F45A
:100F60007041344A083A516063E032495031884256
:100F700008D130490839496841F470212D4A083AAE
:100F8000516056E02B496431884208D1294908391B
:100F9000496841F47001274A083A516049E02549FF
:100FA0007831884208D123490839496841F0706195
:100FB000204A083A51603CE01F49884206D1011F8F
:100FC000096841F00F01021F116032E01A49143123
:100FD000884208D11849091F096841F0F001164AF2
:100FE000121F116025E014492831884208D11249A6
:100FF000091F096841F470610F4A121F116018E05F
:101000000D493C31884208D10B49091F096841F458
:101010007041094A121F11600BE0074950318842A4
:1010200007D10549091F096841F47021024A121FBE
:1010300011607047080002400804024001464868F9
:1010400080B2704701460020002201F0805313B1A6
:10105000054B1A6801E0054B1A6802EA01030BB15F
:10106000012000E000207047000402400000024020
:101070001AB103680B43036002E003688B4303600B
:10108000704710B50022026847F6F0739A430C6A65
:101090008B6823430C6923434C6923438C692343A6
:1010A000CC6923434C6A23438C6A23431A4302606E
:1010B000CB6843600B6883604B68C36010BD7047AA
:1010C0002DE9F041024600250026002000230024DF
:1010D000002791F803C00CF00F0591F803C00CF045
:1010E000100CBCF1000F03D091F802C04CEA0505CA
:1010F00091F800C0BCF1000F31D0146800202BE043
:101100004FF0010C0CFA00F3B1F800C00CEA030632
:101110009E4220D183004FF00F0C0CFA03F7BC4322
:1011200005FA03FC4CEA040491F803C0BCF1280F53
:1011300006D14FF0010C0CFA00FCC2F814C00AE012
:1011400091F803C0BCF1480F05D14FF0010C0CFA27
:1011500000FCC2F810C0401C0828D1D31460B1F8BC
:1011600000C0BCF1FF0F34DD546800202EE000F118
:10117000080C4FF0010808FA0CF3B1F800C00CEAB3
:1011800003069E4221D183004FF00F0C0CFA03F7A7
:10119000BC4305FA03FC4CEA040491F803C0BCF11B
:1011A000280F05D100F1080C08FA0CF8C2F81480D9
:1011B00091F803C0BCF1480F07D100F1080C4FF0C3
:1011C000010808FA0CF8C2F81080401C0828CED399
:1011D0005460BDE8F08100BFFEE700BFFEE7704746
:1011E00008B54FF4E06000F047F80E208DF80000DD
:1011F00000208DF801008DF8020001208DF8030019
:10120000684600F001F808BD70B5002100230F22E8
:10121000C47804B3154C246804F4E064C4F5E064B5
:10122000210AC1F10403CA40447804FA03F1847826
:101230001440214309010E4C0678A155047804F0AE
:101240001F050124AC4005786D11AD0005F1E025C6
:10125000C5F8004109E0047804F01F050124AC4002
:10126000044D0678761145F8264070BD0CED00E07F
:1012700000E400E080E100E002490143024A11601D
:10128000704700000000FA050CED00E07047000018
:1012900029B1064A52690243044B5A6104E0034AE9
:1012A00052698243014B5A617047000000100240AE
:1012B00029B1064A12690243044B1A6104E0034A49
:1012C00012698243014B1A6170470000001002400E
:1012D00029B1064A92690243044B9A6104E0034A29
:1012E00092698243014B9A617047000000100240EE
:1012F00029B1064AD2680243044BDA6004E0034A8B
:10130000D2688243014BDA6070470000001002404F
:1013100030B500210022002400232D4D6D6805F01A
:101320000C0121B1042905D0082923D105E0294D5C
:10133000056022E0274D05601FE0254D6D6805F42E
:101340007012234D6D6805F48034022505EB92423E
:101350001CB9214D554305600BE01D4D6D6805F42A
:1013600000351DB11C4D5543056002E0194D554334
:10137000056002E0174D056000BF00BF144D6D68A9
:1013800005F0F0010909154D6B5C0568DD4045600D
:101390000F4D6D6805F4E061090A104D6B5C4568FE
:1013A000DD4085600A4D6D6805F46051C90A0B4D3A
:1013B0006B5C4568DD40C560054D6D6805F44041D6
:1013C000890B074D6B5CC568B5FBF3F5056130BD56
:1013D0000010024000127A0000093D0000000020C9
:1013E00010000020704710B500F002F810BD00009A
:1013F0000CB50020019000903348006840F4803024
:101400003149086000BF3048006800F400300090A7
:101410000198401C0190009818B90198B0F5A06F90
:10142000F1D12948006800F4003010B1012000908B
:1014300001E0002000900098012843D12348006873
:1014400040F01000214908600846006820F00300C1
:1014500008600846006840F0020008601A484068CA
:10146000194948600846406848600846406840F4AA
:10147000806048600846406820F47C104860084658
:10148000406840F4E81048600846006840F080700A
:10149000086000BF0C48006800F000700028F9D018
:1014A0000948406820F00300074948600846406842
:1014B00040F00200486000BF0348406800F00C00A4
:1014C0000828F9D10CBD00000010024000200240A5
:1014D0007047000010B51348006840F00100114942
:1014E000086008464068104908400E4948600846B0
:1014F00000680E4908400B4908600846006820F45F
:10150000802008600846406820F4FE0048604FF4E0
:101510001F008860FFF767FF4FF000600449086014
:1015200010BD0000001002400000FFF8FFFFF6FEB3
:1015300008ED00E021B1828942F40052828104E08A
:1015400082894DF6FF731A40828170471FB5154896
:1015500000F02AF801218803FFF7BAFE00F072F8C4
:101560004FF4165000900020ADF80400ADF80600CE
:10157000ADF80800ADF80C000C20ADF80A00694683
:10158000084800F0B3F8012240F22551054800F068
:1015900088F84021034800F077F801210148FFF75F
:1015A000C9FF1FBD0038014010B5044620488442E1
:1015B00009D101218803FFF79BFE00214FF48040F1
:1015C000FFF796FE32E01B48844209D1012148040E
:1015D000FFF76EFE00214FF40030FFF769FE25E0B3
:1015E0001548844209D101218804FFF761FE0021DA
:1015F0004FF48020FFF75CFE18E01048844209D1C8
:101600000121C804FFF754FE00214FF40020FFF72A
:101610004FFE0BE00A48844208D101210805FFF77C
:1016200047FE00214FF48010FFF742FE10BD00007E
:10163000003801400044004000480040004C004099
:101640000050004008B501210520FFF741FE4FF48E
:101650000070ADF8000003208DF8020018208DF80E
:10166000030069460748FFF72BFD4FF48060ADF893
:10167000000004208DF8030069460248FFF720FDB2
:1016800008BD00000008014002460020B1F5007FBF
:1016900000D100BF13880B400BB1012000E00020F7
:1016A0007047F0B50346002400260025002040F6D0
:1016B0006A17B94200D100BF1846C1F3421401F0C5
:1016C0001F06012707FA06F5012C01D10C3004E0B2
:1016D000022C01D1103000E014301AB107682F43FA
:1016E000076002E00768AF430760F0BD2DE9F047EF
:1016F00086B005460E460024A24600BFA14600273C
:10170000B08900B100BF2F462C8A4CF6FF70044010
:10171000F08804432C82AC894EF6F3100440B08864
:1017200031890843718908430443AC81AC8A4FF680
:10173000FF400440B0890443AC8201A8FFF7E8FDF4
:101740001F48874202D1DDF810A001E0DDF80CA0AF
:10175000A88900F4004040B10AEBCA0000EB0A106F
:1017600031684900B0FBF1F807E00AEBCA0000EB72
:101770000A1031688900B0FBF1F86420B8FBF0F082
:1017800004012009642101FB1089A88900F40040AC
:1017900040B1322000EBC900B0FBF1F000F00700CF
:1017A000044308E0322000EB09106421B0FBF1F0A3
:1017B00000F00F0004432C8106B0BDE8F087000064
:1017C00000380140C1F308028280704700BFFEE785
:1017D00030380A2801D2012070470020704705E008
:1017E00041F64C5100BF4A1E111EFCD1421E101E74
:1017F000F6D1704770B504460D46E1B20548FFF7D3
:10180000E1FF00BF80210348FFF73EFF0128F9D127
:10181000204670BD003801400025FFF7E1FCFFF7CE
:1018200095FEFFF729FB4FF47A70FFF7D8FF1BA056
:10183000FEF7F8FC2648FEF7F5FC00BF25480068D7
:101840000028FBD124A0FEF7EDFC2BA0FEF7EAFC5C
:1018500000240CE004F0030010B930A0FEF7E2FC15
:101860002F4850F824102FA0FEF7DCFC641C202C1D
:10187000F0D320222A492D48FFF7BCFA05461DB9AE
:101880002BA0FEF7CFFC02E02EA0FEF7CBFC002041
:1018900026490860FFF7F0FA00BFFEE70A2D2D2D5C
:1018A0002D2D2D2D2D2D2D2D2D2D2D2D2D2D2D2D68
:1018B0002D444D4120546573742D2D2D2D2D2D2D2E
:1018C0002D2D2D2D2D2D2D2D2D2D2D2D2D0A0000C5
:1018D000A4190008180000200A2D2D436F6D706CAC
:1018E000657465205472616E736D697373696F6E90
:1018F0002D2D2D2D2D0A00000A2D2D2D436F6E74D8
:10190000656E7473206F66205352435F436F6E732E
:10191000745F4275666665723A0000000A00000056
:10192000A800002030782530387800001C00002006
:101930000A444D412074657374206661696C210A04
:10194000000000000A0A444D41207465737420733E
:10195000756363657373210A000000003031323310
:1019600034353637383941424344454640305800D3
:101970003031323334353637383961626364656605
:101980004030780004000008000000000000000261
:1019900000010000103A7474003A7474003A7474D0
:1019A000000000000A2D2D2D2D2D2D2D2D2D2D2D3E
:1019B0002D2D2D2D2D2D2D2D2D436F6D706C6574BE
:1019C0006520496E697469616C697A6174696E6FCA
:1019D0002D2D2D2D2D2D2D2D2D2D2D2D2D2D2D2D37
:1019E0002D2D2D2D0A000000081A000800000020EF
:1019F000A80000006C010008B01A0008A800002030
:101A0000E007000088010008000000000102030454
:101A1000010203040607080902040608000000008A
:101A20000100000004030201080706050C0B0A0967
:101A3000100F0E0D14131211181716151C1B1A195E
:101A4000201F1E1D24232221282726252C2B2A294E
:101A5000302F2E2D34333231383736353C3B3A393E
:101A6000403F3E3D44434241484746454C4B4A492E
:101A7000504F4E4D54535251585756555C5B5A591E
:101A8000605F5E5D64636261686766656C6B6A690E
:101A9000706F6E6D74737271787776757C7B7A79FE
:101AA000807F7E7D0000000000000000000000003C
:0400000508000131BD
:00000001FF
